:100000000C94F2010C940F020C940F020C940F024A
:100010000C940F020C940F020C940F020C940F021C
:100020000C940F020C940F020C940F020C940F020C
:100030000C940F020C940F020C940F020C940F02FC
:100040000C940F020C940F020C940F020C940F02EC
:100050000C940F020C940F020C940F020C940F02DC
:100060000C940F020C940F020C940F020C940F02CC
:100070000C940F020C940F020C940F02AD00A6001A
:10008000A10098008F00880047524F554E4400470A
:100090005241504849435300434F4D5055544552E7
:1000A00000434849500053435245454E004D494393
:1000B000524F434F4E54524F4C4C45520034022342
:1000C000020F02F901E501CF01B901A701940185F1
:1000D0000171015F0151013B0125010F01FD00E9A3
:1000E00000E3006C6F73732E00737472696B65208C
:1000F000726573756C747320696E20610061207382
:100100007472696B652E20546865203372640074C4
:1001100068656E20796F752077696C6C20726563F5
:100120006569766500796F752067756573732069F9
:100130006E636F72726563746C7900726576656167
:100140006C65642C20796F752077696E2E20496666
:100150000077686F6C6520776F7264206973007731
:100160006F726420616E64207768656E20746865C4
:100170000072657665616C732070617274206F66C1
:100180002074686500456163682073656C656374FD
:10019000696F6E006F6363757220696E20746865A5
:1001A00020776F72642E00746865206C65747465C6
:1001B00072732077686963680074686520776F726E
:1001C000642062792073656C656374696E670052A0
:1001D000756C65733A20596F75206D75737420675F
:1001E0007565737300776974682074686520726937
:1001F000676874206B65792E00636F6E6669726D37
:10020000207468652073656C656374696F6E007334
:10021000656C6563742061206C657474657220611F
:100220006E6400616E6420646F776E206B65797315
:1002300020746F00436F6E74726F6C733A20557345
:10024000652074686520757000B0029B0286027399
:10025000026002550266726F6D2046494C532E00B3
:10026000536176752067726F757020313234322099
:10027000454200627920416C6578616E6472752D2B
:100280004D6968616900736F667477617265207784
:100290006173207772697474656E00677565737336
:1002A0002074686520776F72642E2054686973002B
:1002B000412067616D6520776865726520796F758B
:1002C000206D75737400000000002E000600063ECD
:1002D000143E2C7E34120824142A340006001C22FA
:1002E0000000221C0A040A081C0840300008080804
:1002F0000060601008041C2A1C043E00322A242AD4
:100300002A1418143A2E2A3A3E2A3A023A063E2A6B
:100310003E2E2A3E001400201400081C141414144D
:10032000141C08022A040000003C0A3C3E2A141C4B
:1003300022223E221C3E2A2A3E0A0A1C223A3E085B
:100340003E223E2210201E3E08363E20203E0C3E1D
:100350003E1C3E1C221C3E0A041C323C3E0A342435
:100360002A12023E023E203E0E300E3E183E360855
:1003700036063806322A263E220004081000223EA5
:100380000603062020200204001028383E281030E2
:10039000282810283E182C2C083C0A90A8783E08E3
:1003A00030003A00403A003E1028003E003818382D
:1003B000380830382838F828101028F8380808206D
:1003C0003808043E243820381830183830382810BF
:1003D00028986018083820081C22007E00221C087B
:1003E0000818100011241FBECFEFD4E0DEBFCDBF30
:1003F00011E0A0E0B1E0E6E0F2E102C005900D926C
:10040000AA3AB107D9F721E0AAEAB1E001C01D92EA
:10041000AB3AB207E1F70E94C2040C9401090C94B4
:100420000000613411F0613669F442B121E030E03E
:10043000B90102C0660F771F8A95E2F7CB01842BC2
:1004400082B90895623411F0623669F445B121E051
:1004500030E0B90102C0660F771F8A95E2F7CB0141
:10046000842B85B90895633411F0633669F448B17B
:1004700021E030E0B90102C0660F771F8A95E2F7EC
:10048000CB01842B88B90895643411F0643661F48B
:100490004BB121E030E0B90102C0660F771F8A95A9
:1004A000E2F7CB01842B8BB90895613411F06136EA
:1004B000E1F490B121E030E0A901082E02C0440F20
:1004C000551F0A94E2F7292F30E024233523A90190
:1004D00002C0559547958A95E2F7CA0121E0892B1C
:1004E00009F020E02093AA0162C0623411F0623664
:1004F000E1F493B121E030E0A901082E02C0440FDD
:10050000551F0A94E2F7292F30E024233523A9014F
:1005100002C0559547958A95E2F7CA0121E0892BDB
:1005200009F020E02093AA0142C0633411F0633641
:10053000E1F496B121E030E0A901082E02C0440F99
:10054000551F0A94E2F7292F30E024233523A9010F
:1005500002C0559547958A95E2F7CA0121E0892B9B
:1005600009F020E02093AA0122C0643411F064361F
:10057000E1F499B121E030E0A901082E02C0440F56
:10058000551F0A94E2F7292F30E024233523A901CF
:1005900002C0559547958A95E2F7CA0121E0892B5B
:1005A00009F020E02093AA0102C01092AA018091D4
:1005B000AA010895AC0120E012C047FF04C085B134
:1005C000806285B903C085B18F7D85B995B190688A
:1005D00095B995B19F7795B9440F551F2F5F283076
:1005E00060F3089595B1906495B990E00E94DA02A5
:1005F000089595B19F7B95B990E00E94DA02089525
:10060000CF93DF9380E80E94F90280E40E94F90210
:10061000C0E0D0E004C080E00E94F2022196C83F12
:1006200081E0D807C0F3DF91CF91089585B18F7035
:1006300085B984B1806F84B987E893E10197F1F7B8
:1006400000C0000085B1806185B981E20E94F90295
:1006500081EA0E94F90284E00E94F90284E10E948A
:10066000F90280E20E94F9028CE00E94F9020895EA
:100670000F931F93CF93DF93082F162F80910401C0
:10068000882321F0862F880F880F180F403429F017
:1006900080EE840F8F3518F403C04AE201C04AE2AD
:1006A000153590F5073080F550E040525109EA01C8
:1006B000CC0FDD1FC40FD51FCA53DD4F812F8068BB
:1006C0000E94F9028BEA089F812D11248695869558
:1006D000982F990F890F982F990F802F891B80646D
:1006E0000E94F90200E007C0FE0184910E94F2021C
:1006F0000F5F1F5F2196033010F41435A8F31435F3
:1007000018F480E00E94F202DF91CF911F910F91C7
:1007100008950F931F93CF93DF93D82F8A011092E0
:100720000401C62FCC0FCC0FC60F07C06C2F8D2F26
:100730000E943803CC5F0F5F1F4FF80140814423B4
:1007400011F0C43598F381E080930401DF91CF91DB
:100750001F910F9108958AB18E7F8AB98AB18D7FDA
:100760008AB98AB18B7F8AB98AB1877F8AB964E4F2
:1007700080E00E94110264E481E00E94110264E4BE
:1007800082E00E94110264E483E00E941102089555
:100790008F929F92AF92BF92CF92DF92EF92FF9291
:1007A0000F931F93CF93DF93EC015B016A01490123
:1007B00064E481E00E945502882311F18BE49DE1FD
:1007C0000197F1F700C0000064E481E00E94550247
:1007D000882309F4CAC08881811105C08F5F88838E
:1007E000F5018083C2C0813009F0BFC0F60180816D
:1007F0008111BBC081E0F7018083F5018083B5C022
:1008000064E483E00E945502882309F448C08BE425
:100810009DE10197F1F700C0000064E483E00E94CD
:100820005502882309F4A1C0888181110AC0F6010C
:100830009081923030F49F5F908381E0F501808356
:1008400094C0813081F4F601908191110CC0F401C3
:100850009081F8012081921730F49F5FF40190831A
:10086000F501808382C0813009F07FC0F60180816C
:10087000882309F47AC0F4014081242F30E02B5FF3
:100880003F4FF801808190E0281739070CF06DC0C8
:100890004F5FF401408381E0F501808366C064E42A
:1008A00080E00E9455028823C9F18BE49DE1019705
:1008B000F1F700C0000064E480E00E945502882344
:1008C00009F453C0888181110AC0F60190819923EF
:1008D00031F09150908381E0F501808346C08130F2
:1008E00069F4F6019081911109C0F4019081992376
:1008F00029F091509083F501808337C08130A9F5AC
:10090000F6018081882389F1F4018081882369F1CF
:100910008150808381E0F501808327C064E482E018
:100920000E945502882309F18BE49DE10197F1F7BC
:1009300000C0000064E482E00E9455028823A9F010
:100940008881813041F4F40110828881815088834C
:1009500081E0F501808388818250823030F4F40197
:100960001082188281E0F5018083DF91CF911F9181
:100970000F91FF90EF90DF90CF90BF90AF909F903E
:100980008F900895CF93DF93CDB7DEB7C459D109C7
:100990000FB6F894DEBF0FBECDBF19821A821B823C
:1009A0001C8280E1E5E0F1E0DE01569601900D92B7
:1009B0008A95E1F71EA28AE1E6E1F1E0DE01979671
:1009C00001900D928A95E1F781E0E6968FAFE69768
:1009D000E7961FAEE79716BC85E085BD83E0809360
:1009E0006E000E94AB030E9416030E94000383E482
:1009F00090E00E948508CC24C394D12CAE014A58C3
:100A00005F4F7A018E010C5F1F4F9E012F5F3F4F9A
:100A100043575109BE016B587F4FCE0102960E9489
:100A2000C803E6968FADE6978823E1F19A8191118C
:100A300039C0E6961FAEE6970E9400038B818111B4
:100A400006C041E351E060E00E94890306C042E332
:100A500051E060E080E00E9489038B81813031F4B5
:100A600040E451E060E00E94890306C041E451E0A7
:100A700060E081E00E9489038B81823031F440E59F
:100A800051E060E00E94890306C041E551E060E06A
:100A900082E00E9489034AE551E060E085E00E941F
:100AA0008903ACCF882309F491C29A81913009F06F
:100AB0008DC2E6961FAEE6970E9400038B818111DE
:100AC0003DC289E18C83CC2009F458C00E94800883
:100AD0006AE979E10E940C08FB01FF27EE0FFF1F76
:100AE000E458FF4F65917491CE0105960E949008DD
:100AF00030E035C0E1E4F0E0EC0FFD1FE20FF11D46
:100B00009081E5E0F0E0EC0FFD1FE30FF11D808127
:100B1000981301C041E02F5F02C040E020E0822F27
:100B200090E0DE01AF5BBF4FFD0101900020E9F7CF
:100B30003197EA1BFB0B8E179F07E0F241110EC0A5
:100B4000A5E0B0E0AC0FBD1FA30FB11D8C9141E437
:100B500050E04C0F5D1FE40FF51F80833F5F832F34
:100B600090E0DE011596FD0101900020E9F7319734
:100B7000EA1BFB0B8E179F0780F2C12CE7968FAD07
:100B8000E797811132C069C08981E7E2F0E0EC0F9C
:100B9000FD1FE80FF11D3081E1E4F0E0EC0FFD1FD7
:100BA000E40FF11D808138131EC00CC0EBE5F0E0AE
:100BB000EC0FFD1FE20FF11D8081381301C051E0E1
:100BC0002F5F01C020E0822F90E0DE01A55ABF4FC9
:100BD000FD0101900020E9F73197EA1BFB0B8E170E
:100BE0009F0720F321E04F5F03C050E020E040E08A
:100BF000842F90E0DE01AF5BBF4FFD01019000202C
:100C0000E9F73197EA1BFB0B8E179F0708F4BCCF5F
:100C1000511112C0222381F0FE01E55AFF4F0190CD
:100C20000020E9F78981A7E2B0E0AC0FBD1FA80F53
:100C3000B11D8C913197808321110CC0D394ED2D7F
:100C4000F0E0389686E190E08C0F9D1FE80FF91FC9
:100C500088E58083E7961FAEE79795E09D1508F439
:100C600032C14EE651E060E080E00E948903DE017F
:100C7000AF5BBF4FFD0101900020E9F73197CF0135
:100C80008A1B9B0B5A96FD0101900020E9F73197D2
:100C9000EA1BFB0B8E179F07A9F519821C821B828A
:100CA000E7961FAEE797CE018F5B9F4FFC01019047
:100CB0000020E9F73197AF01481B590B60E070E065
:100CC0000E949708CE01855A9F4FFC010190002099
:100CD000E9F73197AF01481B590B60E070E00E94C3
:100CE00097088FE58F8F88A389A38AA38BA38CA3F2
:100CF00082E08A8381E0E6968FAFE697CC24C394A6
:100D0000D12C15C1AE014A5E5F4F60E080E00E94C9
:100D1000890300E030C0EBE5F0E0EC0FFD1FE10FD0
:100D2000F11D8081E5E0F0E0EC0FFD1FE00FF11D0B
:100D30004081841305C0602F81E00E94380321E0C8
:100D40001F5F02C020E010E0812F90E0DE01A55A75
:100D5000BF4FFD0101900020E9F73197EA1BFB0B23
:100D60008E179F07C0F2211105C04FE5602F81E06B
:100D70000E9438030F5F802F90E0DE011596FD0181
:100D800001900020E9F73197EA1BFB0B8E179F07B4
:100D9000C8F210E00CC0EBE5F0E0EC0FFD1FE10F36
:100DA000F11D40811F5F612F82E00E943803812F77
:100DB00090E0DE01A55ABF4FFD0101900020E9F748
:100DC0003197EA1BFB0B8E179F0728F34981405D83
:100DD00060E082E00E94380310E030C0898118177B
:100DE00060F4E7E2F0E0EC0FFD1FE10FF11D408140
:100DF000612F83E00E94380320C0811768F4E7E286
:100E0000F0E0EC0FFD1FE10FF11D408161E0610F8B
:100E100083E00E94380311C04EE3612F83E00E94FB
:100E20003803E7E2F0E0EC0FFD1FE10FF11D408118
:100E300061E0610F83E00E9438031F5F103170F2A0
:100E4000F12C37C00F2D10E0005F1F4F898190E01B
:100E50000817190764F4E7E2F0E0EC0FFD1FE00F5C
:100E6000F11F40816F2D84E00E94380321C080175C
:100E700091076CF4E7E2F0E0EC0FFD1FE00FF11FCB
:100E8000408161E06F0D84E00E94380311C04EE3A1
:100E90006F2D84E00E943803E7E2F0E0EC0FFD1FC5
:100EA000E00FF11F408161E06F0D84E00E94380384
:100EB000F39449E04F1530F64EE751E060E085E0ED
:100EC0000E94890334C019821C821B82E7961FAEE0
:100ED000E797CE018F5B9F4FFC0101900020E9F75F
:100EE0003197AF01481B590B60E070E00E949708F2
:100EF000CE01855A9F4FFC0101900020E9F7319700
:100F0000AF01481B590B60E070E00E9497088FE525
:100F10008F8F88A389A38AA38BA38CA383E08A8362
:100F200081E0E6968FAFE697CC24C394D12C83ED75
:100F300090E30197F1F700C0000041C08130F9F45F
:100F400083E18C8310E018C08981E12FF0E0E80F85
:100F5000F11DEE0FFF1FE354FF4F65917491CE0119
:100F600089589F4F0E949008AE0149585F4F60E03A
:100F7000812F0E9489031F5F153030F320C082301B
:100F8000F1F486E08C8310E018C08981E12FF0E055
:100F9000E80FF11DEE0FFF1FE75BFD4F65917491A8
:100FA000CE0189589F4F0E949008AE0149585F4F6B
:100FB00060E0812F0E9489031F5F153030F34EE7F8
:100FC00051E060E085E00E94890318CD882381F01C
:100FD0009A81923069F442E951E065E081E00E9433
:100FE00089034BE951E060E085E00E94890306CD6A
:100FF000882309F403CD8A81833009F0FFCC40EACD
:1010000051E064E081E00E9489034BE951E060E037
:1010100085E00E948903F2CC97FB072E16F400941A
:1010200007D077FD09D00E94200807FC05D03EF4C8
:10103000909581959F4F0895709561957F4F089584
:10104000AA1BBB1B51E107C0AA1FBB1FA617B707EE
:1010500010F0A61BB70B881F991F5A95A9F780950A
:101060009095BC01CD0108958F929F92AF92BF924F
:10107000CF92DF92EF92FF92CF93DF93EC016881E2
:1010800079818A819B81611571058105910521F422
:1010900064E279ED8BE597E02DE133EF41E050E03C
:1010A0000E949E0849015A019B01AC01A7EAB1E4E4
:1010B0000E94BD086B017C01ACEEB4EFA501940168
:1010C0000E94CB08DC01CB018C0D9D1DAE1DBF1D08
:1010D000B7FF03C00197A109B04888839983AA8309
:1010E000BB839F77DF91CF91FF90EF90DF90CF9000
:1010F000BF90AF909F908F9008950E9434080895FC
:1011000080E091E00E9434080895A0E0B0E0809370
:10111000000190930101A0930201B093030108958F
:10112000FB01DC0105900D920020E1F70895DC0140
:1011300001C06D9341505040E0F70895052E97FB94
:101140001EF400940E94B50857FD07D00E94D008F5
:1011500007FC03D04EF40C94B5085095409530959B
:1011600021953F4F4F4F5F4F089590958095709513
:1011700061957F4F8F4F9F4F08950E94F208A59F62
:10118000900DB49F900DA49F800D911D1124089582
:10119000B7FF0C94BD080E94BD08821B930B0895F5
:1011A000A1E21A2EAA1BBB1BFD010DC0AA1FBB1F6B
:1011B000EE1FFF1FA217B307E407F50720F0A21BDD
:1011C000B30BE40BF50B661F771F881F991F1A944A
:1011D00069F760957095809590959B01AC01BD0174
:1011E000CF010895A29FB001B39FC001A39F700DCE
:1011F000811D1124911DB29F700D811D1124911D1F
:061200000895F894FFCFF1
:101206000100000001537472696B65733A205F5FD9
:101216005F5F5F5F00004142434445464748494A95
:101226004B4C4D4E4F505152535455565758595A90
:10123600003E312E2053746172742047616D650043
:101246003E322E20486F7720546F20506C61790013
:101256003E332E2041626F7574002020202020200E
:1012660020205E2020202076202020203E00496E6F
:1012760020537472696B6573203C20362100202050
:10128600203C202020205E202020207620202020A8
:101296003E00596F7520576F6E21002020203C00BC
:0A12A600596F75204C6F737421001E
:00000001FF
